:100000000C946B000C94AA020C9483020C94930041
:100010000C9493000C9493000C9493000C94930014
:100020000C9493000C9493000C9493000C94AF03E5
:100030000C9493000C9493000C9493000C949300F4
:100040000C9439020C9493000C94F7020C94D10296
:100050000C9493000C9493000C9493000C949300D4
:100060000C9493000C949300F907F90708084409CD
:100070002608420844095F08D20800000000240056
:1000800027002A0000000000250028002B000000A7
:1000900000002300260029000404040404040404CE
:1000A0000202020202020303030303030102040823
:1000B00010204080010204081020010204081020D2
:1000C0000000000800020100000304070000000017
:1000D00000000000720911241FBECFEFD8E0DEBF80
:1000E000CDBF11E0A0E0B1E0E2E5F4E102C005908F
:1000F0000D92AE35B107D9F723E0AEE5B1E001C00E
:100100001D92AC38B207E1F710E0CBE6D0E004C0B6
:100110002197FE010E940C0ACA36D107C9F70E9436
:1001200031060C94270A0C9400009C01225F3F4F7B
:10013000621773073CF00F966817790718F481E08F
:10014000FB01808308950895CF92DF92EF92FF9292
:100150000F931F93CF93DF936C017A018B01C0E063
:10016000D0E0CE15DF0581F0D8016D918D01D6016B
:10017000ED91FC910190F081E02DC6010995892B4C
:1001800011F02196EECF7E01C701DF91CF911F9133
:100190000F91FF90EF90DF90CF900895FC01538D69
:1001A000448D252F30E0842F90E0821B930B541751
:1001B00010F0CF96089501970895FC01918D828DDE
:1001C000981761F0828DDF01A80FB11D5D968C91AB
:1001D000928D9F5F9F73928F90E008958FEF9FEFB6
:1001E0000895FC01918D828D981731F0828DE80F72
:1001F000F11D858D90E008958FEF9FEF0895FC012C
:10020000918D228D892F90E0805C9F4F821B9109F8
:100210008F739927089587ED92E00E94FF0021E0F7
:10022000892B09F420E0822F0895FC01848DDF01E1
:10023000A80FB11DA35ABF4F2C91848D90E0019659
:100240008F739927848FA689B7892C93A089B18948
:100250008C91837080648C93938D848D981306C0E9
:100260000288F389E02D80818F7D80830895EF924D
:10027000FF920F931F93CF93DF93EC0181E0888F60
:100280009B8D8C8D981305C0E889F989808185FD47
:1002900026C0F62E0B8D10E00F5F1F4F0F73112736
:1002A000E02E8C8DE8120CC00FB607FCFACFE8895F
:1002B000F989808185FFF5CFCE010E941501F1CF2C
:1002C0008B8DFE01E80FF11DE35AFF4FF0829FB7BF
:1002D000F8940B8FEA89FB89808180620AC09FB7FE
:1002E000F894EE89FF896083E889F98980818370B9
:1002F000806480839FBF81E090E0DF91CF911F9168
:100300000F91FF90EF900895CF93DF93EC01888DCC
:100310008823C9F0EA89FB89808185FD05C0A88909
:10032000B9898C9186FD0FC00FB607FCF5CF80818F
:1003300085FFF2CFA889B9898C9185FFEDCFCE01D9
:100340000E941501E7CFDF91CF91089580E090E002
:10035000892B29F00E940B0181110C940000089553
:10036000089580E090E0089581E08093D50208959B
:1003700081E08093D4020895CF93DF93EC0160E095
:100380008E810E945C0561E08E810E945C0560E0C8
:100390008E810E945C058BE891E00197F1F7DF9177
:1003A000CF9108950E94190A833081F028F481309A
:1003B00099F08230A1F008958730A9F08830B9F023
:1003C0008430D1F4809180008F7D03C080918000C3
:1003D0008F7780938000089584B58F7702C084B5AD
:1003E0008F7D84BD08958091B0008F7703C0809188
:1003F000B0008F7D8093B0000895CF93DF9390E09D
:10040000FC01E455FF4F2491FC01E856FF4F849115
:10041000882361F190E0880F991FFC01E658FF4F97
:10042000C591D491FC01EC57FF4FA591B491611196
:1004300009C09FB7F8948881209582238883EC9126
:100440002E230BC0623061F49FB7F8948881322F5D
:10045000309583238883EC912E2B2C939FBF06C06D
:100460008FB7F894E8812E2B28838FBFDF91CF912F
:1004700008951F920F920FB60F9211242F933F935E
:100480008F939F93AF93BF938091BC029091BD02D5
:10049000A091BE02B091BF023091BB0223E0230FB6
:1004A0002D3720F40196A11DB11D05C026E8230FAC
:1004B0000296A11DB11D2093BB028093BC029093B4
:1004C000BD02A093BE02B093BF028091B70290918B
:1004D000B802A091B902B091BA020196A11DB11D56
:1004E0008093B7029093B802A093B902B093BA0276
:1004F000BF91AF919F918F913F912F910F900FBE20
:100500000F901F9018951F920F920FB60F92112403
:100510002F933F934F935F936F937F938F939F930B
:10052000AF93BF93EF93FF93E0910201F09103012A
:100530000995FF91EF91BF91AF919F918F917F911D
:100540006F915F914F913F912F910F900FBE0F9040
:100550001F9018951F920F920FB60F9211242F9390
:100560003F934F935F936F937F938F939F93AF933B
:10057000BF93EF93FF93E0910001F0910101099582
:10058000FF91EF91BF91AF919F918F917F916F916B
:100590005F914F913F912F910F900FBE0F901F9041
:1005A00018951F920F920FB60F9211242F933F931D
:1005B0004F935F936F937F938F939F93AF93BF936B
:1005C000EF93FF9387ED92E00E941501FF91EF9169
:1005D000BF91AF919F918F917F916F915F914F915B
:1005E0003F912F910F900FBE0F901F9018951F9263
:1005F0000F920FB60F9211242F938F939F93EF9327
:10060000FF93E091E702F091E8028081E091ED0232
:10061000F091EE0282FD12C090818091F0028F5F16
:100620008F732091F102821751F0E091F002F0E017
:10063000E952FD4F958F8093F00201C08081FF91B8
:10064000EF919F918F912F910F900FBE0F901F9060
:100650001895CF92DF92EF92FF920F931F93CF9353
:10066000DF936C017C0187E0E80EF11CC0E0D0E074
:10067000062F10E0B8010C2E02C0759567950A94FC
:10068000E2F76170F70181917F010E945C0521967C
:10069000C430D10579F7C601DF91CF911F910F9139
:1006A000FF90EF90DF90CF900C94BC01CF92DF923F
:1006B000EF92FF920F931F93CF93DF93EC01F62EEF
:1006C000642F8C810E945C058D818F3F19F060E062
:1006D0000E945C058F850F2D10E084FF25C06E0100
:1006E00087E0C80ED11CE12CF12CB8010E2C02C001
:1006F000759567950A94E2F76170F60181916F0133
:100700000E945C05FFEFEF1AFF0A88E0E816F1048B
:1007100061F7CE01DF91CF911F910F91FF90EF9084
:10072000DF90CF900C94BC01B80184E0759567957B
:100730008A95E1F7CE010E9429036F2DCE01DF914A
:10074000CF911F910F91FF90EF90DF90CF900C947D
:10075000290341E00E94560381E090E008951F9232
:100760000F920FB60F9211242F933F938F939F9365
:10077000EF93FF938091820187FF05C0109285005F
:100780001092840005C08091820187FD80918201D2
:10079000809182018F5F809382018091820187FF27
:1007A00020C0809182018C30E4F42091840030914B
:1007B000850080918201082E000C990BFC01EE0F40
:1007C000FF1F8E0F9F1FFC01E25AFE4F8181928115
:1007D000820F931F909389008093880080918201FB
:1007E00017C08091840090918500049680349C49C4
:1007F00018F480E49CE905C0809184009091850004
:10080000049690938900809388008FEF80938201F3
:10081000FF91EF919F918F913F912F910F900FBE7C
:100820000F901F90189540E0682F84E793E00C9498
:100830005603009769F0FC0101900020E9F7319719
:10084000AF01481B590BBC0184E793E00C94A40052
:1008500080E090E00895CF93DF93EC01E09187036F
:10086000E23010F4E15001C0E1E0F0E0EC58FC4F60
:10087000848980680E94130485E491E00E94190431
:10088000E0918703E23010F4E15001C0E1E0F0E0D4
:10089000EC58FC4F848980680E94130486E591E03F
:1008A0000E941904CE01DF91CF910C941904CF93CB
:1008B000DF934091C0025091C1026091C2027091D9
:1008C000C3022091C4023091C50280E090E0DC01B7
:1008D00084179507A607B70724F5F9010196A11D0E
:1008E000B11D215F3F4FC185D285CD2B89F786EDA4
:1008F00092E09287818788E893E1A0E0B0E080836E
:100900009183A283B38381E0848388EC92E094870F
:10091000838780EC92E096878587158216821782FE
:100920001086DF91CF9108951F93CF93DF9380912D
:10093000D602882309F48CC08091C8029091C90224
:100940008430910561F030F48230910541F00397D5
:1009500031F00DC08630910511F0079741F41092E7
:10096000C9021092C8021092CB021092CA024091A2
:10097000C0025091C1026091C2027091C3022091E5
:10098000C4023091C50280E090E0DC018417950735
:10099000A607B7077CF4F9010196A11DB11D215FDF
:1009A0003F4FC185D285C65DD24081F71286118640
:1009B0001486138680E480937C0080917A008064A2
:1009C00080937A0080917A0086FDFCCFA091780018
:1009D00080917900B0E0B82B24E630E00E94120A42
:1009E0002FEF33E040E050E00E94BC092093CD029D
:1009F0003093CE024093CF025093D002E9ECF0E066
:100A00008491E5EBF0E0D491E1EAF0E0C491CC23ED
:100A100079F081110E94D401EC2FF0E0EE0FFF1F5E
:100A2000E257FF4FA591B491EC91ED2381E009F4D9
:100A300080E081708093D10289E090E09093C902B8
:100A40008093C8021092CB021092CA0281E001C0CA
:100A500080E0DF91CF911F9108950E94940481114D
:100A600027C08091D402882329F18091C8029091F7
:100A7000C9028630910511F0079741F41092C9021E
:100A80001092C8021092CB021092CA0282E391E047
:100A90009093D3028093D2020E942B0484E090E0D2
:100AA0009093C9028093C8021092CB021092CA029E
:100AB00081E0089580E008951F93CF93DF93282F5E
:100AC00030E0F901E054FF4F8491F901E455FF4F04
:100AD000D491F901E856FF4FC491CC23C1F0162FF1
:100AE00081110E94D401EC2FF0E0EE0FFF1FEC57B4
:100AF000FF4FA591B4919FB7F894111104C08C9148
:100B0000D095D82302C0EC91DE2BDC939FBFDF9100
:100B1000CF911F910895CF93DF93823028F0909169
:100B200083039860909383038093870310928803D4
:100B300080E48093890380E180938A0380E5809339
:100B40008B0361E0809178030E94FD01809179031D
:100B50008F3F19F061E00E94FD0161E080917A030E
:100B60000E94FD01C4E7D3E09E01245733408091E9
:100B7000830384FD03C084E090E002C088E090E03D
:100B80002196281739072CF461E08E810E94FD011F
:100B9000EBCF8BE39DE00197F1F760E08091780364
:100BA0000E945C0560E080917A030E945C05809160
:100BB00079038F3F19F060E00E945C058091830308
:100BC00084FD20C063E084E793E00E942903CBE426
:100BD000D6E4CE010197F1F763E084E793E00E9449
:100BE00029032197F1F763E084E793E00E9429034A
:100BF00083E592E00197F1F762E084E793E00E94D9
:100C0000290315C080620E9413048BE496E40197C7
:100C1000F1F78091830380620E94130483E592E0E0
:100C20000197F1F78091830380620E941304809101
:100C3000830380620E94130484E0809384038CE029
:100C40000E94130481E00E9413048BE39FE101974B
:100C5000F1F782E08093850386E0DF91CF910C94D9
:100C60001304CF93DF93CDB7DEB7A5970FB6F894F3
:100C7000DEBF0FBECDBF789484B5826084BD84B5DD
:100C8000816084BD85B5826085BD85B5816085BD87
:100C900080916E00816080936E001092810080913F
:100CA00081008260809381008091810081608093C7
:100CB0008100809180008160809380008091B100EC
:100CC00084608093B1008091B00081608093B00017
:100CD00080917A00846080937A0080917A008260AB
:100CE00080937A0080917A00816080937A0080916D
:100CF0007A00806880937A001092C100E091E70248
:100D0000F091E80282E08083E091E302F091E40256
:100D10001082E091E502F091E6028FEC8083109260
:100D2000EF02E091EB02F091EC0286E08083E0912B
:100D3000E902F091EA02808180618083E091E9021A
:100D4000F091EA02808188608083E091E902F0916D
:100D5000EA02808180688083E091E902F091EA02F2
:100D600080818F7D808382E00E948B0582E291E00A
:100D70000E94190461E088E00E94FD0162E083E0C6
:100D80000E94FD0162E082E00E94FD0160E089E0D6
:100D90000E94FD0188EB91E0909301018093000196
:100DA00080916900836080936900E89A84EB91E008
:100DB0009093030180930201809169008C6080937D
:100DC0006900E99A83E891E09093C5028093C40298
:100DD00084E190E0A0E0B0E08093C0029093C10273
:100DE000A093C202B093C30210928D0110928C01A5
:100DF00080EC92E0909391018093900185E990E0DE
:100E00009093C7028093C6021092C9021092C80242
:100E10001092CB021092CA021092D4021092D50204
:100E20001092D6021092CC021092CD021092CE02F5
:100E30001092CF021092D0021092D10282E391E080
:100E40009093D3028093D2020E94570484E090E0F2
:100E50009093C9028093C8021092CB021092CA02EA
:100E60008FB7F894C090BC02D090BD02E090BE0253
:100E7000F090BF028FBF4091B3025091B4026091D5
:100E8000B5027091B6028091AF029091B002A0912C
:100E9000B102B091B202452B462B472B61F0AC0159
:100EA000BD01465F5F4F6F4F7F4FC416D506E60604
:100EB000F70608F414C2A7019601281B390B4A0B48
:100EC0005B0B2AA33BA34CA35DA300E010E0412CE5
:100ED000512C32018091C0029091C102A091C202B6
:100EE000B091C302481659066A067B060CF05FC033
:100EF000A091C402B091C502A00FB11F19962D9008
:100F00003C901A972114310409F449C015962D918B
:100F10003D914D915C9118978D909D90AD90BC90B6
:100F20001397281539054A055B05CCF56AA17BA105
:100F30008CA19DA1260F371F481F591F15962D9371
:100F40003D934D935C931897281539054A055B0529
:100F500034F11D96ED91FC911E970680F781E02DEE
:100F6000B1011B968D919C911C970995E091C4024B
:100F7000F091C502E00FF11F8481882381F0858103
:100F80009681A781B0854081518162817381841BE4
:100F9000950BA60BB70B85839683A783B0877FEF4E
:100FA000471A570A670A770A015F1F4F93CF1092BB
:100FB000CB021092CA028BE3682E8FE1782E96E066
:100FC000A92EB12C27E0822E912C8091CA029091FB
:100FD000CB02892B09F062C1E091C802F091C902ED
:100FE0003297E930F10508F04FC1EC5CFF4F0C94EB
:100FF0000C0A0E949404811147C11092CB021092F6
:10100000CA0284E090E09093C9028093C8023CC178
:101010000E949404811138C18091D402882309F47C
:1010200033C11092C9021092C8021092CB021092E2
:10103000CA028CE391E09093D3028093D2020E9483
:101040002B048091CC028823C1F034C00E942D056E
:1010500081111AC18091D502882309F415C110921B
:10106000C9021092C8021092CB021092CA0260E02C
:1010700088E00E945C051092CC029092C902809296
:10108000C802FEC00E942D058111FEC08091D502CC
:10109000882309F4F9C01092C9021092C802109274
:1010A000CB021092CA0261E088E00E945C0591E0E8
:1010B0009093CC02B092C902A092C802E1C01092F3
:1010C000C9021092C8021092CB021092CA0281E0AB
:1010D0000E941304C3010197F1F72090CD023090D4
:1010E000CE024090CF025090D002E1E08091870381
:1010F0008111E0E0E195F0E0EC58FC4F84898068D4
:101100000E94130457FE23C041E06DE284E793E0A0
:101110000E94560322273327A901221933094409C3
:10112000550919A28E010F5D1F4FCA01B9012AE0AE
:1011300030E040E050E00E94DB09605DF80162931E
:101140008F01211531054105510579F717C0A2011D
:10115000910119A28E010F5D1F4FCA01B9012AE04A
:1011600030E040E050E00E94DB09605DF8016293EE
:101170008F01211531054105510579F7C8010E94FC
:10118000190483E491E00E9419048091D2029091A5
:10119000D3020E942B042AE030E03093C90220934E
:1011A000C8026EC01092C9021092C8021092CB02FF
:1011B0001092CA026CE371E08091D2029091D30246
:1011C0000E941E0A892B19F40E9457043ACF90916D
:1011D000CC02992391F08091D102811110C081E05D
:1011E0004091CD025091CE026091CF027091D00219
:1011F00042335105610571051CF480E001C081E0B6
:1012000080FF0FC00E94570460E088E00E945C05E8
:101210001092CC0242E050E05093C9024093C802C1
:101220002FC0911112C08091D10281110EC081E0B6
:101230004091CD025091CE026091CF027091D002C8
:1012400042335105610571050CF080E080FF10C04C
:101250000E94570451E05093CC0261E088E00E9464
:101260005C0563E070E07093C9026093C80208C037
:101270000E94570484E090E09093C9028093C802D2
:101280001092CB021092CA028091CA029091CB02B6
:1012900001969093CB028093CA0297CE1092D4020B
:1012A0001092D5021092D602C092AF02D092B00234
:1012B000E092B102F092B2028091B3029091B40236
:1012C000A091B502B091B6020196A11DB11D809307
:1012D000B3029093B402A093B502B093B6020E94F9
:1012E000A601BECDE7EDF2E01382128288EE93E014
:1012F000A0E0B0E084839583A683B78388E091E083
:101300009183808385EC90E09587848784EC90E0DE
:101310009787868780EC90E0918B808B81EC90E0C2
:10132000938B828B82EC90E0958B848B86EC90E0A3
:10133000978B868B118E128E138E148EE4E7F3E05A
:10134000138212828AE191E0918380838CE084830E
:101350008FEF85838BE0868387E0878386E08087B5
:1013600085E0818784E08287138614861586168639
:10137000178681E00C948B05052E97FB1EF40094D4
:101380000E94D30957FD07D00E94DB0907FC03D058
:101390004EF40C94D30950954095309521953F4FCC
:1013A0004F4F5F4F089590958095709561957F4F51
:1013B0008F4F9F4F0895A1E21A2EAA1BBB1BFD0160
:1013C0000DC0AA1FBB1FEE1FFF1FA217B307E40724
:1013D000F50720F0A21BB30BE40BF50B661F771F7C
:1013E000881F991F1A9469F760957095809590955C
:1013F0009B01AC01BD01CF010895A29FB001B39F35
:10140000C001A39F700D811D1124911DB29F700D0D
:10141000811D1124911D0895EE0FFF1F0590F49179
:10142000E02D09940E94FD09B7FF0895821B930BDC
:10143000089581E090E0F8940C94270AFB01DC0108
:101440008D91019080190110D9F3990B0895F894AA
:02145000FFCFCC
:10145200A300A300000000003701A400CE00840115
:10146200FF00DD00F10000000000A903A400B101AB
:10147200B00148656C6C6F205249434520323031CF
:1014820039006175746F6D61746963006D616E75A9
:10149200616C0025002020202020202020202020F8
:0E14A2002020202020004D6F64653A200000BD
:00000001FF
